{
  "_format": "hh-sol-artifact-1",
  "contractName": "SubscriptionNFT",
  "sourceName": "contracts/Greeter.sol",
  "abi": [
    {
      "anonymous": false,
      "inputs": [
        {
          "indexed": true,
          "internalType": "address",
          "name": "owner",
          "type": "address"
        },
        {
          "indexed": true,
          "internalType": "address",
          "name": "approved",
          "type": "address"
        },
        {
          "indexed": true,
          "internalType": "uint256",
          "name": "tokenId",
          "type": "uint256"
        }
      ],
      "name": "Approval",
      "type": "event"
    },
    {
      "anonymous": false,
      "inputs": [
        {
          "indexed": true,
          "internalType": "address",
          "name": "owner",
          "type": "address"
        },
        {
          "indexed": true,
          "internalType": "address",
          "name": "operator",
          "type": "address"
        },
        {
          "indexed": false,
          "internalType": "bool",
          "name": "approved",
          "type": "bool"
        }
      ],
      "name": "ApprovalForAll",
      "type": "event"
    },
    {
      "anonymous": false,
      "inputs": [
        {
          "indexed": false,
          "internalType": "address",
          "name": "author",
          "type": "address"
        },
        {
          "indexed": false,
          "internalType": "address",
          "name": "user",
          "type": "address"
        },
        {
          "indexed": false,
          "internalType": "uint256",
          "name": "expires",
          "type": "uint256"
        }
      ],
      "name": "SubscriptionUpdate",
      "type": "event"
    },
    {
      "anonymous": false,
      "inputs": [
        {
          "indexed": true,
          "internalType": "address",
          "name": "from",
          "type": "address"
        },
        {
          "indexed": true,
          "internalType": "address",
          "name": "to",
          "type": "address"
        },
        {
          "indexed": true,
          "internalType": "uint256",
          "name": "tokenId",
          "type": "uint256"
        }
      ],
      "name": "Transfer",
      "type": "event"
    },
    {
      "inputs": [
        {
          "internalType": "address",
          "name": "to",
          "type": "address"
        },
        {
          "internalType": "uint256",
          "name": "tokenId",
          "type": "uint256"
        }
      ],
      "name": "approve",
      "outputs": [],
      "stateMutability": "nonpayable",
      "type": "function"
    },
    {
      "inputs": [
        {
          "internalType": "address",
          "name": "owner",
          "type": "address"
        }
      ],
      "name": "balanceOf",
      "outputs": [
        {
          "internalType": "uint256",
          "name": "",
          "type": "uint256"
        }
      ],
      "stateMutability": "view",
      "type": "function"
    },
    {
      "inputs": [
        {
          "internalType": "uint256",
          "name": "tokenId",
          "type": "uint256"
        }
      ],
      "name": "getApproved",
      "outputs": [
        {
          "internalType": "address",
          "name": "",
          "type": "address"
        }
      ],
      "stateMutability": "view",
      "type": "function"
    },
    {
      "inputs": [
        {
          "internalType": "address",
          "name": "author",
          "type": "address"
        },
        {
          "internalType": "address",
          "name": "user",
          "type": "address"
        }
      ],
      "name": "getUserNFTS",
      "outputs": [
        {
          "internalType": "uint256",
          "name": "",
          "type": "uint256"
        }
      ],
      "stateMutability": "view",
      "type": "function"
    },
    {
      "inputs": [
        {
          "internalType": "address",
          "name": "author",
          "type": "address"
        },
        {
          "internalType": "address",
          "name": "user",
          "type": "address"
        }
      ],
      "name": "getUserSubscription",
      "outputs": [
        {
          "internalType": "uint256",
          "name": "expires",
          "type": "uint256"
        }
      ],
      "stateMutability": "view",
      "type": "function"
    },
    {
      "inputs": [
        {
          "internalType": "address",
          "name": "owner",
          "type": "address"
        },
        {
          "internalType": "address",
          "name": "operator",
          "type": "address"
        }
      ],
      "name": "isApprovedForAll",
      "outputs": [
        {
          "internalType": "bool",
          "name": "",
          "type": "bool"
        }
      ],
      "stateMutability": "view",
      "type": "function"
    },
    {
      "inputs": [
        {
          "internalType": "address",
          "name": "author",
          "type": "address"
        },
        {
          "internalType": "address",
          "name": "to",
          "type": "address"
        }
      ],
      "name": "mint",
      "outputs": [],
      "stateMutability": "nonpayable",
      "type": "function"
    },
    {
      "inputs": [],
      "name": "name",
      "outputs": [
        {
          "internalType": "string",
          "name": "",
          "type": "string"
        }
      ],
      "stateMutability": "view",
      "type": "function"
    },
    {
      "inputs": [
        {
          "internalType": "uint256",
          "name": "tokenId",
          "type": "uint256"
        }
      ],
      "name": "ownerOf",
      "outputs": [
        {
          "internalType": "address",
          "name": "",
          "type": "address"
        }
      ],
      "stateMutability": "view",
      "type": "function"
    },
    {
      "inputs": [
        {
          "internalType": "address",
          "name": "from",
          "type": "address"
        },
        {
          "internalType": "address",
          "name": "to",
          "type": "address"
        },
        {
          "internalType": "uint256",
          "name": "tokenId",
          "type": "uint256"
        }
      ],
      "name": "safeTransferFrom",
      "outputs": [],
      "stateMutability": "nonpayable",
      "type": "function"
    },
    {
      "inputs": [
        {
          "internalType": "address",
          "name": "from",
          "type": "address"
        },
        {
          "internalType": "address",
          "name": "to",
          "type": "address"
        },
        {
          "internalType": "uint256",
          "name": "tokenId",
          "type": "uint256"
        },
        {
          "internalType": "bytes",
          "name": "_data",
          "type": "bytes"
        }
      ],
      "name": "safeTransferFrom",
      "outputs": [],
      "stateMutability": "nonpayable",
      "type": "function"
    },
    {
      "inputs": [
        {
          "internalType": "address",
          "name": "operator",
          "type": "address"
        },
        {
          "internalType": "bool",
          "name": "approved",
          "type": "bool"
        }
      ],
      "name": "setApprovalForAll",
      "outputs": [],
      "stateMutability": "nonpayable",
      "type": "function"
    },
    {
      "inputs": [
        {
          "internalType": "bytes4",
          "name": "interfaceId",
          "type": "bytes4"
        }
      ],
      "name": "supportsInterface",
      "outputs": [
        {
          "internalType": "bool",
          "name": "",
          "type": "bool"
        }
      ],
      "stateMutability": "view",
      "type": "function"
    },
    {
      "inputs": [],
      "name": "symbol",
      "outputs": [
        {
          "internalType": "string",
          "name": "",
          "type": "string"
        }
      ],
      "stateMutability": "view",
      "type": "function"
    },
    {
      "inputs": [
        {
          "internalType": "uint256",
          "name": "tokenId",
          "type": "uint256"
        }
      ],
      "name": "tokenURI",
      "outputs": [
        {
          "internalType": "string",
          "name": "",
          "type": "string"
        }
      ],
      "stateMutability": "view",
      "type": "function"
    },
    {
      "inputs": [
        {
          "internalType": "address",
          "name": "from",
          "type": "address"
        },
        {
          "internalType": "address",
          "name": "to",
          "type": "address"
        },
        {
          "internalType": "uint256",
          "name": "tokenId",
          "type": "uint256"
        }
      ],
      "name": "transferFrom",
      "outputs": [],
      "stateMutability": "nonpayable",
      "type": "function"
    }
  ],
  "bytecode": "0x60806040523480156200001157600080fd5b506040518060400160405280600a81526020017f4f6e6c79446566616e73000000000000000000000000000000000000000000008152506040518060400160405280600281526020017f4f44000000000000000000000000000000000000000000000000000000000000815250816000908051906020019062000096929190620000b8565b508060019080519060200190620000af929190620000b8565b505050620001cd565b828054620000c69062000168565b90600052602060002090601f016020900481019282620000ea576000855562000136565b82601f106200010557805160ff191683800117855562000136565b8280016001018555821562000136579182015b828111156200013557825182559160200191906001019062000118565b5b50905062000145919062000149565b5090565b5b80821115620001645760008160009055506001016200014a565b5090565b600060028204905060018216806200018157607f821691505b602082108114156200019857620001976200019e565b5b50919050565b7f4e487b7100000000000000000000000000000000000000000000000000000000600052602260045260246000fd5b61333680620001dd6000396000f3fe608060405234801561001057600080fd5b50600436106101005760003560e01c80636352211e11610097578063b88d4fde11610066578063b88d4fde146102d1578063c87b56dd146102ed578063e985e9c51461031d578063ee1fe2ad1461034d57610100565b80636352211e1461023757806370a082311461026757806395d89b4114610297578063a22cb465146102b557610100565b806311fd4bff116100d357806311fd4bff1461019f57806323b872dd146101cf57806330873971146101eb57806342842e0e1461021b57610100565b806301ffc9a71461010557806306fdde0314610135578063081812fc14610153578063095ea7b314610183575b600080fd5b61011f600480360381019061011a9190612501565b610369565b60405161012c91906128f8565b60405180910390f35b61013d61044b565b60405161014a9190612913565b60405180910390f35b61016d60048036038101906101689190612553565b6104dd565b60405161017a919061285a565b60405180910390f35b61019d600480360381019061019891906124c5565b610562565b005b6101b960048036038101906101b49190612383565b61067a565b6040516101c69190612af5565b60405180910390f35b6101e960048036038101906101e491906123bf565b610708565b005b61020560048036038101906102009190612383565b610768565b6040516102129190612af5565b60405180910390f35b610235600480360381019061023091906123bf565b6107f2565b005b610251600480360381019061024c9190612553565b610812565b60405161025e919061285a565b60405180910390f35b610281600480360381019061027c919061235a565b6108c4565b60405161028e9190612af5565b60405180910390f35b61029f61097c565b6040516102ac9190612913565b60405180910390f35b6102cf60048036038101906102ca9190612489565b610a0e565b005b6102eb60048036038101906102e6919061240e565b610a24565b005b61030760048036038101906103029190612553565b610a86565b6040516103149190612913565b60405180910390f35b61033760048036038101906103329190612383565b610b2d565b60405161034491906128f8565b60405180910390f35b61036760048036038101906103629190612383565b610bc1565b005b60007f80ac58cd000000000000000000000000000000000000000000000000000000007bffffffffffffffffffffffffffffffffffffffffffffffffffffffff1916827bffffffffffffffffffffffffffffffffffffffffffffffffffffffff1916148061043457507f5b5e139f000000000000000000000000000000000000000000000000000000007bffffffffffffffffffffffffffffffffffffffffffffffffffffffff1916827bffffffffffffffffffffffffffffffffffffffffffffffffffffffff1916145b80610444575061044382610c8e565b5b9050919050565b60606000805461045a90612d1a565b80601f016020809104026020016040519081016040528092919081815260200182805461048690612d1a565b80156104d35780601f106104a8576101008083540402835291602001916104d3565b820191906000526020600020905b8154815290600101906020018083116104b657829003601f168201915b5050505050905090565b60006104e882610cf8565b610527576040517f08c379a000000000000000000000000000000000000000000000000000000000815260040161051e90612a55565b60405180910390fd5b6004600083815260200190815260200160002060009054906101000a900473ffffffffffffffffffffffffffffffffffffffff169050919050565b600061056d82610812565b90508073ffffffffffffffffffffffffffffffffffffffff168373ffffffffffffffffffffffffffffffffffffffff1614156105de576040517f08c379a00000000000000000000000000000000000000000000000000000000081526004016105d590612ab5565b60405180910390fd5b8073ffffffffffffffffffffffffffffffffffffffff166105fd610d64565b73ffffffffffffffffffffffffffffffffffffffff16148061062c575061062b81610626610d64565b610b2d565b5b61066b576040517f08c379a0000000000000000000000000000000000000000000000000000000008152600401610662906129d5565b60405180910390fd5b6106758383610d6c565b505050565b6000610700600960008573ffffffffffffffffffffffffffffffffffffffff1673ffffffffffffffffffffffffffffffffffffffff16815260200190815260200160002060008473ffffffffffffffffffffffffffffffffffffffff1673ffffffffffffffffffffffffffffffffffffffff168152602001908152602001600020610e25565b905092915050565b610719610713610d64565b82610e33565b610758576040517f08c379a000000000000000000000000000000000000000000000000000000000815260040161074f90612ad5565b60405180910390fd5b610763838383610f11565b505050565b6000600a60008473ffffffffffffffffffffffffffffffffffffffff1673ffffffffffffffffffffffffffffffffffffffff16815260200190815260200160002060008373ffffffffffffffffffffffffffffffffffffffff1673ffffffffffffffffffffffffffffffffffffffff16815260200190815260200160002060010154905092915050565b61080d83838360405180602001604052806000815250610a24565b505050565b6000806002600084815260200190815260200160002060009054906101000a900473ffffffffffffffffffffffffffffffffffffffff169050600073ffffffffffffffffffffffffffffffffffffffff168173ffffffffffffffffffffffffffffffffffffffff1614156108bb576040517f08c379a00000000000000000000000000000000000000000000000000000000081526004016108b290612a15565b60405180910390fd5b80915050919050565b60008073ffffffffffffffffffffffffffffffffffffffff168273ffffffffffffffffffffffffffffffffffffffff161415610935576040517f08c379a000000000000000000000000000000000000000000000000000000000815260040161092c906129f5565b60405180910390fd5b600360008373ffffffffffffffffffffffffffffffffffffffff1673ffffffffffffffffffffffffffffffffffffffff168152602001908152602001600020549050919050565b60606001805461098b90612d1a565b80601f01602080910402602001604051908101604052809291908181526020018280546109b790612d1a565b8015610a045780601f106109d957610100808354040283529160200191610a04565b820191906000526020600020905b8154815290600101906020018083116109e757829003601f168201915b5050505050905090565b610a20610a19610d64565b838361116d565b5050565b610a35610a2f610d64565b83610e33565b610a74576040517f08c379a0000000000000000000000000000000000000000000000000000000008152600401610a6b90612ad5565b60405180910390fd5b610a80848484846112da565b50505050565b6060610a9182610cf8565b610ad0576040517f08c379a0000000000000000000000000000000000000000000000000000000008152600401610ac790612a95565b60405180910390fd5b6000610ada611336565b90506000815111610afa5760405180602001604052806000815250610b25565b80610b048461134d565b604051602001610b15929190612836565b6040516020818303038152906040525b915050919050565b6000600560008473ffffffffffffffffffffffffffffffffffffffff1673ffffffffffffffffffffffffffffffffffffffff16815260200190815260200160002060008373ffffffffffffffffffffffffffffffffffffffff1673ffffffffffffffffffffffffffffffffffffffff16815260200190815260200160002060009054906101000a900460ff16905092915050565b610bcb60086114fa565b6000610bd76008611510565b9050600060405180604001604052808573ffffffffffffffffffffffffffffffffffffffff16815260200162093a8042610c119190612ba9565b815250905080600b600084815260200190815260200160002060008201518160000160006101000a81548173ffffffffffffffffffffffffffffffffffffffff021916908373ffffffffffffffffffffffffffffffffffffffff16021790555060208201518160010155905050610c88838361151e565b50505050565b60007f01ffc9a7000000000000000000000000000000000000000000000000000000007bffffffffffffffffffffffffffffffffffffffffffffffffffffffff1916827bffffffffffffffffffffffffffffffffffffffffffffffffffffffff1916149050919050565b60008073ffffffffffffffffffffffffffffffffffffffff166002600084815260200190815260200160002060009054906101000a900473ffffffffffffffffffffffffffffffffffffffff1673ffffffffffffffffffffffffffffffffffffffff1614159050919050565b600033905090565b816004600083815260200190815260200160002060006101000a81548173ffffffffffffffffffffffffffffffffffffffff021916908373ffffffffffffffffffffffffffffffffffffffff160217905550808273ffffffffffffffffffffffffffffffffffffffff16610ddf83610812565b73ffffffffffffffffffffffffffffffffffffffff167f8c5be1e5ebec7d5bd14f71427d1e84f3dd0314c0f7b2291e5b200ac8c7c3b92560405160405180910390a45050565b600081600001549050919050565b6000610e3e82610cf8565b610e7d576040517f08c379a0000000000000000000000000000000000000000000000000000000008152600401610e74906129b5565b60405180910390fd5b6000610e8883610812565b90508073ffffffffffffffffffffffffffffffffffffffff168473ffffffffffffffffffffffffffffffffffffffff161480610ef757508373ffffffffffffffffffffffffffffffffffffffff16610edf846104dd565b73ffffffffffffffffffffffffffffffffffffffff16145b80610f085750610f078185610b2d565b5b91505092915050565b8273ffffffffffffffffffffffffffffffffffffffff16610f3182610812565b73ffffffffffffffffffffffffffffffffffffffff1614610f87576040517f08c379a0000000000000000000000000000000000000000000000000000000008152600401610f7e90612a75565b60405180910390fd5b600073ffffffffffffffffffffffffffffffffffffffff168273ffffffffffffffffffffffffffffffffffffffff161415610ff7576040517f08c379a0000000000000000000000000000000000000000000000000000000008152600401610fee90612975565b60405180910390fd5b6110028383836116ec565b61100d600082610d6c565b6001600360008573ffffffffffffffffffffffffffffffffffffffff1673ffffffffffffffffffffffffffffffffffffffff168152602001908152602001600020600082825461105d9190612c30565b925050819055506001600360008473ffffffffffffffffffffffffffffffffffffffff1673ffffffffffffffffffffffffffffffffffffffff16815260200190815260200160002060008282546110b49190612ba9565b92505081905550816002600083815260200190815260200160002060006101000a81548173ffffffffffffffffffffffffffffffffffffffff021916908373ffffffffffffffffffffffffffffffffffffffff160217905550808273ffffffffffffffffffffffffffffffffffffffff168473ffffffffffffffffffffffffffffffffffffffff167fddf252ad1be2c89b69c2b068fc378daa952ba7f163c4a11628f55a4df523b3ef60405160405180910390a4505050565b8173ffffffffffffffffffffffffffffffffffffffff168373ffffffffffffffffffffffffffffffffffffffff1614156111dc576040517f08c379a00000000000000000000000000000000000000000000000000000000081526004016111d390612995565b60405180910390fd5b80600560008573ffffffffffffffffffffffffffffffffffffffff1673ffffffffffffffffffffffffffffffffffffffff16815260200190815260200160002060008473ffffffffffffffffffffffffffffffffffffffff1673ffffffffffffffffffffffffffffffffffffffff16815260200190815260200160002060006101000a81548160ff0219169083151502179055508173ffffffffffffffffffffffffffffffffffffffff168373ffffffffffffffffffffffffffffffffffffffff167f17307eab39ab6107e8899845ad3d59bd9653f200f220920489ca2b5937696c31836040516112cd91906128f8565b60405180910390a3505050565b6112e5848484610f11565b6112f18484848461178a565b611330576040517f08c379a000000000000000000000000000000000000000000000000000000000815260040161132790612935565b60405180910390fd5b50505050565b606060405180602001604052806000815250905090565b60606000821415611395576040518060400160405280600181526020017f300000000000000000000000000000000000000000000000000000000000000081525090506114f5565b600082905060005b600082146113c75780806113b090612d7d565b915050600a826113c09190612bff565b915061139d565b60008167ffffffffffffffff811115611409577f4e487b7100000000000000000000000000000000000000000000000000000000600052604160045260246000fd5b6040519080825280601f01601f19166020018201604052801561143b5781602001600182028036833780820191505090505b5090505b600085146114ee576001826114549190612c30565b9150600a856114639190612dc6565b603061146f9190612ba9565b60f81b8183815181106114ab577f4e487b7100000000000000000000000000000000000000000000000000000000600052603260045260246000fd5b60200101907effffffffffffffffffffffffffffffffffffffffffffffffffffffffffffff1916908160001a905350600a856114e79190612bff565b945061143f565b8093505050505b919050565b6001816000016000828254019250508190555050565b600081600001549050919050565b600073ffffffffffffffffffffffffffffffffffffffff168273ffffffffffffffffffffffffffffffffffffffff16141561158e576040517f08c379a000000000000000000000000000000000000000000000000000000000815260040161158590612a35565b60405180910390fd5b61159781610cf8565b156115d7576040517f08c379a00000000000000000000000000000000000000000000000000000000081526004016115ce90612955565b60405180910390fd5b6115e3600083836116ec565b6001600360008473ffffffffffffffffffffffffffffffffffffffff1673ffffffffffffffffffffffffffffffffffffffff16815260200190815260200160002060008282546116339190612ba9565b92505081905550816002600083815260200190815260200160002060006101000a81548173ffffffffffffffffffffffffffffffffffffffff021916908373ffffffffffffffffffffffffffffffffffffffff160217905550808273ffffffffffffffffffffffffffffffffffffffff16600073ffffffffffffffffffffffffffffffffffffffff167fddf252ad1be2c89b69c2b068fc378daa952ba7f163c4a11628f55a4df523b3ef60405160405180910390a45050565b6000600b60008381526020019081526020016000206040518060400160405290816000820160009054906101000a900473ffffffffffffffffffffffffffffffffffffffff1673ffffffffffffffffffffffffffffffffffffffff1673ffffffffffffffffffffffffffffffffffffffff1681526020016001820154815250509050611779838383611921565b611784848383611cd7565b50505050565b60006117ab8473ffffffffffffffffffffffffffffffffffffffff16611e78565b15611914578373ffffffffffffffffffffffffffffffffffffffff1663150b7a026117d4610d64565b8786866040518563ffffffff1660e01b81526004016117f694939291906128ac565b602060405180830381600087803b15801561181057600080fd5b505af192505050801561184157506040513d601f19601f8201168201806040525081019061183e919061252a565b60015b6118c4573d8060008114611871576040519150601f19603f3d011682016040523d82523d6000602084013e611876565b606091505b506000815114156118bc576040517f08c379a00000000000000000000000000000000000000000000000000000000081526004016118b390612935565b60405180910390fd5b805181602001fd5b63150b7a0260e01b7bffffffffffffffffffffffffffffffffffffffffffffffffffffffff1916817bffffffffffffffffffffffffffffffffffffffffffffffffffffffff191614915050611919565b600190505b949350505050565b600060096000836000015173ffffffffffffffffffffffffffffffffffffffff1673ffffffffffffffffffffffffffffffffffffffff16815260200190815260200160002060008573ffffffffffffffffffffffffffffffffffffffff1673ffffffffffffffffffffffffffffffffffffffff16815260200190815260200160002090506119ae81611e8b565b611ad3576119c58382611f0a90919063ffffffff16565b5060405180604001604052806001151581526020018360200151815250600a6000846000015173ffffffffffffffffffffffffffffffffffffffff1673ffffffffffffffffffffffffffffffffffffffff16815260200190815260200160002060008673ffffffffffffffffffffffffffffffffffffffff1673ffffffffffffffffffffffffffffffffffffffff16815260200190815260200160002060008201518160000160006101000a81548160ff021916908315150217905550602082015181600101559050507fe5868cc124625e01c1dbd9925a50dffca5615a06b988af84edde85cc2659f42c8260000151858460200151604051611aca93929190612875565b60405180910390a15b600080611aea600084611f2090919063ffffffff16565b915091508360200151600b60008381526020019081526020016000206001015411611c3957611b24818685611f3a9092919063ffffffff16565b5060405180604001604052806001151581526020018560200151815250600a6000866000015173ffffffffffffffffffffffffffffffffffffffff1673ffffffffffffffffffffffffffffffffffffffff16815260200190815260200160002060008873ffffffffffffffffffffffffffffffffffffffff1673ffffffffffffffffffffffffffffffffffffffff16815260200190815260200160002060008201518160000160006101000a81548160ff021916908315150217905550602082015181600101559050507fe5868cc124625e01c1dbd9925a50dffca5615a06b988af84edde85cc2659f42c8460000151878660200151604051611c2993929190612875565b60405180910390a1505050611cd2565b611c4c8184611f2090919063ffffffff16565b80925081935050505b8115611cba578360200151600b60008381526020019081526020016000206001015411611c9a57611c91818685611f3a9092919063ffffffff16565b50505050611cd2565b611cad8184611f2090919063ffffffff16565b8092508193505050611c55565b611ccd8584611f0a90919063ffffffff16565b505050505b505050565b600060096000836000015173ffffffffffffffffffffffffffffffffffffffff1673ffffffffffffffffffffffffffffffffffffffff16815260200190815260200160002060008573ffffffffffffffffffffffffffffffffffffffff1673ffffffffffffffffffffffffffffffffffffffff1681526020019081526020016000209050611d6e8382611f5290919063ffffffff16565b506000611d85600083611f2090919063ffffffff16565b915050838114611e7157600b600082815260200190815260200160002060010154600a6000856000015173ffffffffffffffffffffffffffffffffffffffff1673ffffffffffffffffffffffffffffffffffffffff16815260200190815260200160002060008773ffffffffffffffffffffffffffffffffffffffff1673ffffffffffffffffffffffffffffffffffffffff168152602001908152602001600020600101819055507fe5868cc124625e01c1dbd9925a50dffca5615a06b988af84edde85cc2659f42c8360000151868560200151604051611e6893929190612875565b60405180910390a15b5050505050565b600080823b905060008111915050919050565b60008082600101600080815260200190815260200160002060008015151515815260200190815260200160002054141580611ef257506000826001016000808152602001908152602001600020600060011515151581526020019081526020016000205414155b15611f005760019050611f05565b600090505b919050565b6000611f188383600061205c565b905092915050565b600080611f2f84846001612074565b915091509250929050565b6000611f4984848460006120cb565b90509392505050565b600080821480611f695750611f678383612169565b155b15611f775760009050612056565b611fd9838460010160008581526020019081526020016000206000801515151581526020019081526020016000205485600101600086815260200190815260200160002060006001151515158152602001908152602001600020546001612224565b826001016000838152602001908152602001600020600080151515158152602001908152602001600020600090558260010160008381526020019081526020016000206000600115151515815260200190815260200160002060009055600183600001600082825461204b9190612c30565b925050819055508190505b92915050565b600061206b84600085856120cb565b90509392505050565b6000806120818585612169565b61209157600080915091506120c3565b600185600101600086815260200190815260200160002060008515151515815260200190815260200160002054915091505b935093915050565b60006120d78584612169565b1580156120ea57506120e98585612169565b5b1561215c57600085600101600086815260200190815260200160002060008415151515815260200190815260200160002054905061212a86868686612224565b61213686858386612224565b600186600001600082825461214b9190612ba9565b925050819055506001915050612161565b600090505b949350505050565b600080836001016000848152602001908152602001600020600080151515158152602001908152602001600020541480156121cf575060008360010160008481526020019081526020016000206000600115151515815260200190815260200160002054145b15612219578183600101600080815260200190815260200160002060006001151515158152602001908152602001600020541415612210576001905061221e565b6000905061221e565b600190505b92915050565b828460010160008481526020019081526020016000206000831515151515815260200190815260200160002081905550818460010160008581526020019081526020016000206000831515151581526020019081526020016000208190555050505050565b600061229c61229784612b35565b612b10565b9050828152602081018484840111156122b457600080fd5b6122bf848285612cd8565b509392505050565b6000813590506122d6816132a4565b92915050565b6000813590506122eb816132bb565b92915050565b600081359050612300816132d2565b92915050565b600081519050612315816132d2565b92915050565b600082601f83011261232c57600080fd5b813561233c848260208601612289565b91505092915050565b600081359050612354816132e9565b92915050565b60006020828403121561236c57600080fd5b600061237a848285016122c7565b91505092915050565b6000806040838503121561239657600080fd5b60006123a4858286016122c7565b92505060206123b5858286016122c7565b9150509250929050565b6000806000606084860312156123d457600080fd5b60006123e2868287016122c7565b93505060206123f3868287016122c7565b925050604061240486828701612345565b9150509250925092565b6000806000806080858703121561242457600080fd5b6000612432878288016122c7565b9450506020612443878288016122c7565b935050604061245487828801612345565b925050606085013567ffffffffffffffff81111561247157600080fd5b61247d8782880161231b565b91505092959194509250565b6000806040838503121561249c57600080fd5b60006124aa858286016122c7565b92505060206124bb858286016122dc565b9150509250929050565b600080604083850312156124d857600080fd5b60006124e6858286016122c7565b92505060206124f785828601612345565b9150509250929050565b60006020828403121561251357600080fd5b6000612521848285016122f1565b91505092915050565b60006020828403121561253c57600080fd5b600061254a84828501612306565b91505092915050565b60006020828403121561256557600080fd5b600061257384828501612345565b91505092915050565b61258581612c64565b82525050565b61259481612c76565b82525050565b60006125a582612b66565b6125af8185612b7c565b93506125bf818560208601612ce7565b6125c881612eb3565b840191505092915050565b60006125de82612b71565b6125e88185612b8d565b93506125f8818560208601612ce7565b61260181612eb3565b840191505092915050565b600061261782612b71565b6126218185612b9e565b9350612631818560208601612ce7565b80840191505092915050565b600061264a603283612b8d565b915061265582612ec4565b604082019050919050565b600061266d601c83612b8d565b915061267882612f13565b602082019050919050565b6000612690602483612b8d565b915061269b82612f3c565b604082019050919050565b60006126b3601983612b8d565b91506126be82612f8b565b602082019050919050565b60006126d6602c83612b8d565b91506126e182612fb4565b604082019050919050565b60006126f9603883612b8d565b915061270482613003565b604082019050919050565b600061271c602a83612b8d565b915061272782613052565b604082019050919050565b600061273f602983612b8d565b915061274a826130a1565b604082019050919050565b6000612762602083612b8d565b915061276d826130f0565b602082019050919050565b6000612785602c83612b8d565b915061279082613119565b604082019050919050565b60006127a8602983612b8d565b91506127b382613168565b604082019050919050565b60006127cb602f83612b8d565b91506127d6826131b7565b604082019050919050565b60006127ee602183612b8d565b91506127f982613206565b604082019050919050565b6000612811603183612b8d565b915061281c82613255565b604082019050919050565b61283081612cce565b82525050565b6000612842828561260c565b915061284e828461260c565b91508190509392505050565b600060208201905061286f600083018461257c565b92915050565b600060608201905061288a600083018661257c565b612897602083018561257c565b6128a46040830184612827565b949350505050565b60006080820190506128c1600083018761257c565b6128ce602083018661257c565b6128db6040830185612827565b81810360608301526128ed818461259a565b905095945050505050565b600060208201905061290d600083018461258b565b92915050565b6000602082019050818103600083015261292d81846125d3565b905092915050565b6000602082019050818103600083015261294e8161263d565b9050919050565b6000602082019050818103600083015261296e81612660565b9050919050565b6000602082019050818103600083015261298e81612683565b9050919050565b600060208201905081810360008301526129ae816126a6565b9050919050565b600060208201905081810360008301526129ce816126c9565b9050919050565b600060208201905081810360008301526129ee816126ec565b9050919050565b60006020820190508181036000830152612a0e8161270f565b9050919050565b60006020820190508181036000830152612a2e81612732565b9050919050565b60006020820190508181036000830152612a4e81612755565b9050919050565b60006020820190508181036000830152612a6e81612778565b9050919050565b60006020820190508181036000830152612a8e8161279b565b9050919050565b60006020820190508181036000830152612aae816127be565b9050919050565b60006020820190508181036000830152612ace816127e1565b9050919050565b60006020820190508181036000830152612aee81612804565b9050919050565b6000602082019050612b0a6000830184612827565b92915050565b6000612b1a612b2b565b9050612b268282612d4c565b919050565b6000604051905090565b600067ffffffffffffffff821115612b5057612b4f612e84565b5b612b5982612eb3565b9050602081019050919050565b600081519050919050565b600081519050919050565b600082825260208201905092915050565b600082825260208201905092915050565b600081905092915050565b6000612bb482612cce565b9150612bbf83612cce565b9250827fffffffffffffffffffffffffffffffffffffffffffffffffffffffffffffffff03821115612bf457612bf3612df7565b5b828201905092915050565b6000612c0a82612cce565b9150612c1583612cce565b925082612c2557612c24612e26565b5b828204905092915050565b6000612c3b82612cce565b9150612c4683612cce565b925082821015612c5957612c58612df7565b5b828203905092915050565b6000612c6f82612cae565b9050919050565b60008115159050919050565b60007fffffffff0000000000000000000000000000000000000000000000000000000082169050919050565b600073ffffffffffffffffffffffffffffffffffffffff82169050919050565b6000819050919050565b82818337600083830152505050565b60005b83811015612d05578082015181840152602081019050612cea565b83811115612d14576000848401525b50505050565b60006002820490506001821680612d3257607f821691505b60208210811415612d4657612d45612e55565b5b50919050565b612d5582612eb3565b810181811067ffffffffffffffff82111715612d7457612d73612e84565b5b80604052505050565b6000612d8882612cce565b91507fffffffffffffffffffffffffffffffffffffffffffffffffffffffffffffffff821415612dbb57612dba612df7565b5b600182019050919050565b6000612dd182612cce565b9150612ddc83612cce565b925082612dec57612deb612e26565b5b828206905092915050565b7f4e487b7100000000000000000000000000000000000000000000000000000000600052601160045260246000fd5b7f4e487b7100000000000000000000000000000000000000000000000000000000600052601260045260246000fd5b7f4e487b7100000000000000000000000000000000000000000000000000000000600052602260045260246000fd5b7f4e487b7100000000000000000000000000000000000000000000000000000000600052604160045260246000fd5b6000601f19601f8301169050919050565b7f4552433732313a207472616e7366657220746f206e6f6e20455243373231526560008201527f63656976657220696d706c656d656e7465720000000000000000000000000000602082015250565b7f4552433732313a20746f6b656e20616c7265616479206d696e74656400000000600082015250565b7f4552433732313a207472616e7366657220746f20746865207a65726f2061646460008201527f7265737300000000000000000000000000000000000000000000000000000000602082015250565b7f4552433732313a20617070726f766520746f2063616c6c657200000000000000600082015250565b7f4552433732313a206f70657261746f7220717565727920666f72206e6f6e657860008201527f697374656e7420746f6b656e0000000000000000000000000000000000000000602082015250565b7f4552433732313a20617070726f76652063616c6c6572206973206e6f74206f7760008201527f6e6572206e6f7220617070726f76656420666f7220616c6c0000000000000000602082015250565b7f4552433732313a2062616c616e636520717565727920666f7220746865207a6560008201527f726f206164647265737300000000000000000000000000000000000000000000602082015250565b7f4552433732313a206f776e657220717565727920666f72206e6f6e657869737460008201527f656e7420746f6b656e0000000000000000000000000000000000000000000000602082015250565b7f4552433732313a206d696e7420746f20746865207a65726f2061646472657373600082015250565b7f4552433732313a20617070726f76656420717565727920666f72206e6f6e657860008201527f697374656e7420746f6b656e0000000000000000000000000000000000000000602082015250565b7f4552433732313a207472616e73666572206f6620746f6b656e2074686174206960008201527f73206e6f74206f776e0000000000000000000000000000000000000000000000602082015250565b7f4552433732314d657461646174613a2055524920717565727920666f72206e6f60008201527f6e6578697374656e7420746f6b656e0000000000000000000000000000000000602082015250565b7f4552433732313a20617070726f76616c20746f2063757272656e74206f776e6560008201527f7200000000000000000000000000000000000000000000000000000000000000602082015250565b7f4552433732313a207472616e736665722063616c6c6572206973206e6f74206f60008201527f776e6572206e6f7220617070726f766564000000000000000000000000000000602082015250565b6132ad81612c64565b81146132b857600080fd5b50565b6132c481612c76565b81146132cf57600080fd5b50565b6132db81612c82565b81146132e657600080fd5b50565b6132f281612cce565b81146132fd57600080fd5b5056fea2646970667358221220c5a908a6ca932598aa75332ebceffcbada99b243d5ba3ec46084f357b4cc69d964736f6c63430008040033",
  "linkReferences": {},
  "deployedLinkReferences": {}
}